S015000074726166666963206C696768742E73726563F8
S11300000C942A000C9444000C943C000C943C0086
S11300100C943C000C943C000C943C000C943C006C
S11300200C943C000C943C000C943C000C943C005C
S11300300C943C000C943C000C943C000C943C004C
S11300400C943C000C943C000C943C000C943C003C
S11300500C943C0011241FBECFE5D8E0DEBFCDBF19
S113006020E0A0E6B0E001C01D92A436B207E1F79B
S11300700E9496010C94DB020C9400000E9477000D
S113008008950E94940008951F920F920FB60F9244
S113009011242F933F934F935F936F937F938F9389
S11300A09F93AF93BF93EF93FF930E941D01FF9122
S11300B0EF91BF91AF919F918F917F916F915F91DC
S11300C04F913F912F910F900FBE0F901F90189555
S11300D041E00E949B01089541E00E9408020895B6
S11300E040E00E94080208950E947502089560E0AD
S11300F080E00E94680061E080E00E94680062E0A5
S113010080E00E94680060E081E00E94680061E095
S113011081E00E94680062E081E00E9468000E9421
S1130120A9020E94B8020895CF93C1E0C09363006E
S113013060E080E00E946C0060E081E00E9470005A
S113014062E081E00E946C0064E170E080E090E095
S11301500E94BC0260E080E00E94700062E081E0E6
S11301600E94700010926300C093620010926000BD
S113017013C061E080E00E94740061E081E00E94AD
S1130180740062E070E080E090E00E94BC02809124
S113019060008F5F80936000809160008A3048F334
S11301A061E080E00E94700061E081E00E947000E4
S11301B010926200C1E0C093610062E080E00E949E
S11301C06C0060E081E00E946C0064E170E080E01B
S11301D090E00E94BC0262E080E00E94700060E057
S11301E081E00E94700010926100C093620010923E
S11301F0600013C061E080E00E94740061E081E06F
S11302000E94740062E070E080E090E00E94BC0212
S1130210809160008F5F80936000809160008A30DD
S113022048F361E080E00E94700061E081E00E9498
S1130230700010926200CF91089580916300813024
S1130240D9F460E080E00E946C0060E081E00E94EC
S1130250700062E081E00E946C0064E170E080E084
S113026090E00E94BC0260E080E00E94700062E0C6
S113027081E00E947000089580916200813029F02D
S113028080916100813009F050C061E080E00E94FB
S1130290700061E081E00E94700062E080E00E94F2
S11302A0700060E081E00E94700061E080E00E94E4
S11302B06C001092600013C061E080E00E94740042
S11302C061E081E00E94740062E070E080E090E010
S11302D00E94BC02809160008F5F809360008091D7
S11302E060008A3048F361E080E00E94700061E0C1
S11302F081E00E94700060E080E00E946C0060E099
S113030081E00E94700062E081E00E946C0064E180
S113031070E080E090E00E94BC0260E080E00E9417
S1130320700062E081E00E94700008950E943E0027
S11303300E944100FDCF813001F130F08230B1F1F3
S1130340833009F44CC00895413059F42AB381E054
S113035090E002C0880F991F6A95E2F7822B8ABB4E
S113036008952AB381E090E002C0880F991F6A952E
S1130370E2F7809582238ABB0895413059F427B36C
S113038081E090E002C0880F991F6A95E2F7822B02
S113039087BB089527B381E090E002C0880F991FBE
S11303A06A95E2F78095822387BB0895413059F41A
S11303B024B381E090E002C0880F991F6A95E2F7A8
S11303C0822B84BB089524B381E090E002C0880F9F
S11303D0991F6A95E2F78095822384BB0895413082
S11303E059F421B381E090E002C0880F991F6A9507
S11303F0E2F7822B81BB089521B381E090E002C033
S1130400880F991F6A95E2F78095822381BB08952E
S1130410813001F130F08230B1F1833009F44CC005
S11304200895413059F42BB381E090E002C0880F65
S1130430991F6A95E2F7822B8BBB08952BB381E059
S113044090E002C0880F991F6A95E2F78095822395
S11304508BBB0895413059F428B381E090E002C089
S1130460880F991F6A95E2F7822B88BB089528B3F9
S113047081E090E002C0880F991F6A95E2F78095A9
S1130480822388BB0895413059F425B381E090E07C
S113049002C0880F991F6A95E2F7822B85BB0895E5
S11304A025B381E090E002C0880F991F6A95E2F7B6
S11304B08095822385BB0895413059F422B381E0AD
S11304C090E002C0880F991F6A95E2F7822B82BBE5
S11304D0089522B381E090E002C0880F991F6A95C5
S11304E0E2F78095822382BB0895813089F028F059
S11304F08230C9F0833011F108952BB381E090E08C
S113050002C0880F991F6A95E2F782278BBB089572
S113051028B381E090E002C0880F991F6A95E2F742
S1130520822788BB089525B381E090E002C0880F3C
S1130530991F6A95E2F7822785BB089522B381E06B
S113054090E002C0880F991F6A95E2F7822782BB68
S1130550089581B38B7F81BB82B3846082BB8BB7E8
S113056080648BBF85B7826085BF80E48ABF0895AD
S11305708FB780688FBF08950F931F938B019C01E1
S113058086E082BF85E883BF40E050E0BA010AC03C
S113059008B600FEFDCF88B7816088BF4F5F5F4F0C
S11305A06F4F7F4F401751076207730788F313BEDD
S10D05B01F910F910895F894FFCFF6
S9030000FC
